:020000040800F2
:10000000880B0020452600085D0400085F040008F6
:1000100063040008670400086B0400080000000087
:100020000000000000000000000000006F04000855
:100030007104000800000000730400087504000843
:100040005F2600085F2600085F2600085F2600087C
:100050005F2600085F2600085F2600085F2600086C
:100060005F260008770400085F2600085F26000866
:100070005F2600085F2600085F2600085F2600084C
:100080005F2600085F2600085F2600085F2600083C
:100090005F2600085F2600085F2600085F2600082C
:1000A0005F2600085F2600085F2600085F2600081C
:1000B0005F2600085F2600085F2600085F2600080C
:1000C0005F2600085F2600085F2600085F260008FC
:1000D0005F260008550700085F2600085F26000815
:1000E0005F2600085F2600085F2600085F260008DC
:1000F0005F2600085F2600085F2600085F260008CC
:100100005F2600085F2600085F2600085F260008BB
:100110005F2600085F2600085F2600085F260008AB
:100120005F2600085F2600085F2600085F2600089B
:10013000DFF80CD003F0B6FB00480047CB01000805
:10014000880B00202DE9F04105460E4617461C4657
:100150003246294696A004F01EFF07464FF4007170
:10016000384604F035FE0446214693A003F0BCFB5C
:10017000384604F0EEFD204604F04CFBBDE8F0816B
:1001800040B5904800F051FD8E49886803F01CFA94
:1001900006462B46224631468BA0FFF7D3FF40BDD3
:1001A00010B508E08AA003F09FFB8EA003F09CFB33
:1001B000C82001F029F95A21824800F0EDFC0028FE
:1001C000F0D08CA003F090FB10BD8EB0002700246F
:1001D0008C4903C9CDE906010020049005908A49A5
:1001E0000870482001F0D2F800F0B2F987480068A2
:1001F000874B884A812100900BA802F0AAFE834811
:100200000068854B854A8121009008A802F0A1FE74
:100210000421834801F06FFC0A2000F0B3F910209C
:1002200000F045FC0A2000F0ADF904217C4801F003
:1002300060FC02217A4801F05CFC0421784801F05E
:100240005AFC00F0B5FEFFF7ABFFAFE03846791C73
:10025000CFB2322190FBF1F201FB120008B9FFF797
:100260008FFF694800780128EFD16E49096881F451
:10027000000003F093F96C49086064486B4A036816
:100280000BA802F0F5F96A49096881F4000003F04F
:1002900085F9684908605D48674A036808A802F064
:1002A000E7F9079803F07AF98246634801685046F7
:1002B00003F0D8F904D26048006803F085F907908C
:1002C000059803F06BF982465B480168504603F0DD
:1002D000BFF904D25848006803F076F905900298F7
:1002E0000190039802905448006803F06DF9039060
:1002F0000320B5FBF0F00499081A0299884201D254
:10030000012000E00020DDE90112914201D201212B
:1003100000E000210840DDE90221914201D20121E3
:1003200000E00021084068B144490988880003F0D2
:100330002CF982465146424802F061FF06460020F1
:100340003E490880641CB4F5FA6F0CD907980690F2
:10035000059804904FF0FF30079000200590069913
:100360000498451A00240020274908702F48006887
:1003700003F02AF982464B464246514631A0FFF728
:10038000E1FE2D48006803F01FF982464B464246C5
:1003900051462EA0FFF7D6FE304603F015F98246EF
:1003A0004B46424651462BA0FFF7CCFE4EE70000DD
:1003B0007B733A697D0000006F75743A25730D0AEE
:1003C0000000000090000020626F647900000000CF
:1003D0004D4C583930363134204572726F72210DD0
:1003E0000A0000004D4C58393036313420457272C5
:1003F0006F7221004D4C583930363134204F4B212B
:100400000D0A0000B85E0008080000200C00002063
:10041000A4000020B45C0008A8020020B05A000824
:1004200000080140000000201400002018000020F7
:10043000040000201C000020200000200A000020F2
:1004400000606A47687578690000000078696E642A
:1004500069616E0078696E6C76000000704700BFBD
:10046000FEE700BFFEE700BFFEE700BFFEE7704704
:100470007047704770473EB5082001F060FC0024CB
:1004800006E0FF2000F013FB0DF80400601CC4B26E
:10049000092CF6DB00201B4908601B4908609DF809
:1004A00003001849096841EA0040164908609DF8B0
:1004B0000400096841EA0020124908609DF805001F
:1004C000096808430F4908609DF806000E4909684D
:1004D00041EA00400C4908609DF80700096841EABC
:1004E0000020094908609DF808000968084306498A
:1004F000086006480088401C04490880012004491F
:1005000008703EBD00000020040000200A0000200A
:100510000800002008B50121402001F079F93020C1
:10052000ADF8000003208DF8020010208DF80300C4
:100530006946064801F030FA1021044801F0D9FA62
:100540002021024801F0D5FA08BD00000018014042
:1005500010B5C82000F073F8FFF7DCFF4FF4E1306E
:1005600000F0ACF800F03CF900F00CFB00F06EFA83
:1005700000F086F910BD704700BF411EC9B2081EC9
:10058000FBD17047002100BF082100BF4A1ED2B234
:10059000111EFBD1421ED2B2101EF5D170470021B0
:1005A00000BF0F2100BF4A1ED2B2111EFBD1421E56
:1005B00092B2101EF5D1704700BF072100BF0B2279
:1005C00000BF531E9BB21A1EFBD14B1E9BB2191EBD
:1005D000F5D1431EDBB2181EEFD1704700BF422198
:1005E00000BF1E2200BF531EDBB21A1EFBD14B1EE2
:1005F000DBB2191EF5D1431EDBB2181EEFD17047D6
:10060000652000BF582100BF4A1E92B2111EFBD1C7
:10061000421E92B2101EF5D1704700BF772100BF75
:10062000432200BF531E9BB21A1EFBD14B1E9BB22E
:10063000191EF5D1431EDBB2181EEFD1704700BF63
:1006400040F2712100BF3F2200BF531E9BB21A1E11
:10065000FBD14B1E9BB2191EF5D1431EDBB2181EF7
:10066000EED1704700BF4FF47A7100BF40F2012213
:1006700000BF531E9BB21A1EFBD14B1E9BB2191E0C
:10068000F4D1431EDBB2181EEDD1704701B502E074
:100690000098401E009000980028F9D108BD000085
:1006A00000BF704700BF4A4A128802F04002002A89
:1006B000F9D0C2B2464B1B1D1A80704710B586B0E8
:1006C0000446012144F2040001F0A2F84FF4007046
:1006D000ADF8140003208DF8160018208DF81700CF
:1006E00005A93C4801F058F94FF48060ADF81400BA
:1006F00004208DF8170005A9364801F04DF9252092
:100700008DF8000003208DF801008DF80200012013
:100710008DF80300684600F0A4FE01940020ADF8B7
:100720000800ADF80A00ADF80C00ADF810000C2080
:10073000ADF80E0001A9264801F0D3FC012240F2D9
:100740002551234801F065FD0121214801F055FDA7
:1007500006B010BD10B540F225511D4801F03EFE17
:1007600010B31B4801F0BAFDC4B21B48008800F466
:100770000040C8B91848008800F4804060B10A2CD5
:1007800003D000201449088020E01348008840F47A
:1007900000401149088019E00D2C06D10E48008850
:1007A00040F480400C49088010E00B480088C0F3FA
:1007B0000D000A490C5408480088401C064908806E
:1007C00008460088C72801DD0020088010BD000011
:1007D000003801400008014028000020AC0400203F
:1007E00008B50121042001F013F80720ADF800003E
:1007F00003208DF8020010208DF8030069468E4812
:1008000001F0CAF808BD70B505460C4604218A48B7
:1008100001F071F9284600F04AF90A20FFF7B2FE0C
:10082000002000F044F90A20FFF7ACFE204600F05B
:100830003EF90A20FFF7A6FE04217F4801F059F98E
:1008400070BD70B5044604217B4801F054F9204680
:1008500000F02DF90A20FFF795FE002000F027F99F
:100860000A20FFF78FFEFF2000F021F905460A203D
:10087000FFF788FE0421704801F03BF9284670BD5F
:1008800010B502216C4801F034F904216A4801F0E6
:1008900030F90121684801F02EF91420FFF7E2FE3B
:1008A0000121654801F025F91420FFF7DBFE012145
:1008B000614801F020F90A20FFF764FE01215E483B
:1008C00001F017F91420FFF7CDFE02215A4801F07C
:1008D00012F90421584801F00EF90A20FFF752FEE0
:1008E000112000F0E4F80A20FFF74CFE04215248E2
:1008F00001F0FFF82020FFF7A4FF04460AE021469C
:100900004EA002F0F1FF2020FFF79BFF04461420C9
:10091000FFF7A8FE732CF2D10A20FFF733FEE02187
:100920004220FFF770FF0A20FFF777FE01214120E8
:10093000FFF769FF0A20FFF725FEF0214320FFF7AC
:1009400062FF0A20FFF71EFE60214420FFF75BFFD5
:100950000A20FFF717FE00214520FFF754FF0A2069
:10096000FFF710FEEF214620FFF74DFF0A20FFF7AB
:1009700009FE0F214720FFF746FF0A20FFF702FE7E
:1009800000214820FFF73FFF0A20FFF7FBFDEA2187
:100990004920FFF738FF0A20FFF7F4FD03214A2022
:1009A000FFF731FF0A20FFF7EDFD0C214B20FFF789
:1009B0002AFF0A20FFF7E6FD10BD70B505460421A9
:1009C0001D4801F098F80A20FFF7DCFD102000F028
:1009D0006EF80A20FFF7D6FD0421174801F089F8C8
:1009E0000221154801F085F800BF0821124801F0E6
:1009F00066F80128F9D004210F4801F07CF80A209C
:100A0000FFF7C0FD002406E0FF2000F050F828703A
:100A10006D1C601CC4B2092CF6DB0221064801F0F3
:100A20006AF8112000F043F80A20FFF7ABFD04211B
:100A3000014801F05EF870BD000801404552524F78
:100A4000522049443A253032780D0A0008B5012178
:100A500041F2040000F0DCFEE020ADF800001820B8
:100A60008DF8030003208DF802006946254800F048
:100A700093FFE021234801F03CF800202249088040
:100A80004FF48270488000208880C880012008814F
:100A900040024881202088810020C88108821B48AC
:100AA00001F07CF90121194801F01DFA08BD70B56B
:100AB0000546002407E0601C84B244F620608442AE
:100AC00001DD002070BD0221104801F090FA0028DD
:100AD000F1D029460D4801F037FA002407E0601CE8
:100AE00084B244F62060844201DD0020EAE701215F
:100AF000064801F07CFA0028F1D0044801F026FAFB
:100B0000C0B2DFE70008014074050020003001405A
:100B100008B50121052000F07BFE0820ADF800009B
:100B200003208DF8020048208DF80300694619481B
:100B300000F032FF08BD1CB50321002001F042F88F
:100B40000820009000208DF804000C208DF805008E
:100B500001208DF80600684601F07AF81CBD08B542
:100B60004FF4A06000F078FC09208DF8000001200F
:100B70008DF801008DF802008DF80300684600F042
:100B800070FC08BD10B5FFF7C3FFFFF7E8FFFFF7E4
:100B9000D2FF10BD00080140F8B504460D460026FE
:100BA00084B12570E34800688047207802236A46B4
:100BB0002E21E14F3F68B84720789DF80010884209
:100BC00000D101263046F8BD2DE9FC5F82460020A9
:100BD0000190BAF1000F25D09AF8000002236A466E
:100BE0000621D54C2468A047E0B1012001909DF872
:100BF00001B09DF8000040EA0B200FFA80FB584638
:100C000002F0D1FC06460022CC4B02F04FFC044619
:100C10004FF06632CA4B02F0D1FB804602F0FBFC7B
:100C2000CAF804000198BDE8FC9F2DE9FC5F8246EC
:100C300000200190BAF1000F25D09AF8000002239D
:100C40006A460721BC4C2468A047E0B1012001900E
:100C50009DF801B09DF8000040EA0B200FFA80FBE0
:100C6000584602F0A0FC06460022B44B02F01EFCDF
:100C700004464FF06632B24B02F0A0FB804602F011
:100C8000CAFCCAF808000198BDE8FC9F2DE9FC5F8A
:100C9000824600200190BAF1000F25D09AF800009A
:100CA00002236A460821A44C2468A047E0B1012031
:100CB00001909DF801B09DF8000040EA0B200FFA6A
:100CC00080FB584602F06FFC064600229B4B02F068
:100CD000EDFB04464FF06632994B02F06FFB804605
:100CE00002F099FCCAF80C000198BDE8FC9FF8B529
:100CF00004460025002000903CB302236A462421CC
:100D0000904E3668B04700B38F48216902F045FA2B
:100D1000064602F059FCC0B28DF800008A482169ED
:100D200002F03BFA064602F04FFC000A8DF8010083
:100D30004FF47A7000F068FB02236A4624210020F9
:100D4000804E3668B04700B101252846F8BD2DE930
:100D5000F04F89B004464FF000097C49606802F00A
:100D600077FC36D87949606802F011FA059002F0F4
:100D70003FFC774A774BCDE9060102F025FB074699
:100D80000022754B02F079FA824602F044FC0646D6
:100D90006E49606802F0FBF9039002F029FC0746F7
:100DA0006E4A6F4B02F010FBCDE90401304602F0B1
:100DB0001FFC0746664A6B4B02F05FFA8246DDE98C
:100DC000042302F0FBFACDE9060102F024FC81467F
:100DD0002CE05E49606802F0DAF9059002F008FC48
:100DE000614A624BCDE9060102F0EEFA0746604A1D
:100DF000604B02F042FA824602F00DFC064653496F
:100E0000606802F0C4F9059002F0F2FB07465A4A06
:100E10005A4B02F0D9FA564A5242594BCDE90601D3
:100E200002F02BFA824602F0F6FB81463146A068BA
:100E300002F00EFC28D23146A06802F0A8F907465D
:100E400002F0D6FBCDE90201606802F0D1FB8246D8
:100E50004C4A4D4B02F0B8FA07464C4A4C4B02F054
:100E60000CFACDE90001DDE9022302F0ADFA4FF002
:100E70006632484BCDE9040102F0FFF9CDE90601E5
:100E800002F0C9FB054650E04846A16802F0E0FBCD
:100E900028D24946A06802F07AF9074602F0A8FB7A
:100EA000CDE90201606802F0A3FB07463A4A3B4BDA
:100EB00002F08AFA3A4A3B4BCDE9000102F0DDF933
:100EC0008246DDE9022302F07FFA4FF06632364BAC
:100ED000CDE9040102F0D1F9CDE9060102F09BFB56
:100EE000054622E03146A06802F051F983463146BA
:100EF000484602F04CF95946039002F04EF98246FA
:100F000002F076FB02460B46CDE90401002027499A
:100F100002F0CCFA07464FF066321E4B02F0ADF9F4
:100F2000CDE9060102F077FB0546284609B0BDE889
:100F3000F08F00002C00002030000020000049400D
:100F4000661271403400002000FF7F470000D0414E
:100F5000B81E85EB51B8BE3F00403D40FCA9F1D220
:100F60004D62703F51B804406ABC74931804B63F98
:100F700014AE47E17A5440409A9999999999B93FAA
:100F8000856B414026AD6ADCAA0A963F774A23402A
:100F90002FA7E13F66264240437C83D6935E633FA2
:100FA0001BAC8664CB89EA3F666642400000E03FA6
:100FB00008B50121042000F02BFC4FF4C050ADF81F
:100FC000000010208DF8030003208DF80200694610
:100FD000EB4800F0E1FC0020EA490860EA49C1F86A
:100FE000B00108BD10B5E648001D006820F470206F
:100FF000E349091D08600846006840F44030086075
:101000000120E049091D0860DF49C1F8AC01052055
:1010100000F0D6F90020DB49091D0860052000F02A
:10102000CFF90020D849C1F8AC0110BD10B5D448A3
:10103000001D006820F47020D149091D0860084691
:10104000006840F4403008600020CE490860CE4976
:10105000C1F8B001052000F0B3F90120C9490860CA
:10106000C949C1F8B001052000F0AAF910BD70B55A
:1010700000250024C248001D006820F47020C049EB
:10108000091D08600846006840F40020086001203F
:10109000BC49091D0860052000F092F90120BA49F9
:1010A000C1F8AC01052000F08BF909E0052000F043
:1010B00087F9B4487C38006800B903E0601CC4B20A
:1010C000C82CF3DB00BFC82C03DBFFF7AFFF002504
:1010D00000E001250020AB490860284670BD10B52E
:1010E0000020A8490860A648001D006820F4702070
:1010F000A349091D08600846006840F440300860B4
:101100000020A149C1F8B001052000F059F90120E3
:101110009C490860052000F053F900209A49C1F865
:10112000AC0110BD10B50020964908609448001D20
:10113000006820F470209249091D08600846006884
:1011400040F44030086001208F49C1F8B00105200B
:1011500000F036F901208B490860052000F030F9D5
:1011600000208949C1F8AC0110BD70B504460025C6
:1011700000268348001D006820F470208049091D66
:1011800008600846006840F44030086000207D494F
:10119000086014E0E0097B49091D08606006040E40
:1011A00001207949C1F8AC01052000F009F90020BF
:1011B00074490860052000F003F9681CC5B2082DC9
:1011C000E8DBFFF754FF0646304670BD70B50025DA
:1011D00000246B48001D006820F470206849091D38
:1011E00008600846006840F40020086016E000200F
:1011F00064490860052000F0E3F801206249C1F865
:10120000AC016006040E5F487C38006808B1601CC1
:10121000C4B2052000F0D4F8681CC5B2082DE6DB86
:10122000FFF780FF204670BDF0B504460D46002054
:1012300080EA4406F0B200210BE000F0800626B1FF
:10124000072686EA4006F0B201E04606300E4E1C44
:10125000F1B20829F1DB684000210BE000F08006C4
:1012600026B1072686EA4006F0B201E04606300EB7
:101270004E1CF1B20829F1DB12E012F8016B70404C
:1012800000210BE000F0800626B1072686EA400622
:10129000F0B201E04606300E4E1CF1B20829F1DB37
:1012A0001E1EA3F10107BBB2E7D1F0BD2DE9F04747
:1012B00005460E461746984643463A463146284666
:1012C000FFF7B2FF8146FFF78DFE002141EA45019D
:1012D000C8B2FFF74AFF10B90020BDE8F0873046DA
:1012E000FFF743FF08B90020F7E7002407E0385D67
:1012F000FFF73BFF08B90020EFE7601CC4B244458C
:10130000F5DB4846FFF731FF08B90020E5E7FFF7B6
:101310008DFE0120E1E72DE9F04104460F46154618
:101320009846FFF75FFE002141EA4401C8B2FFF78B
:101330001CFF10B90020BDE8F0813846FFF715FF0B
:1013400008B90020F7E7FFF74DFE012101EB44014A
:10135000C8B2FFF70AFF08B90020ECE708F0FF0663
:1013600005E0FFF733FF28706D1C701EC6B2002E1B
:10137000F7DCFFF72BFFFFF759FE0120DBE700004A
:1013800000080140AC0121420000214210B5044692
:101390006FF0040000F0AFF8E11704EB5171C1F3F6
:1013A000C7012B4A11701046007800EB4001C1EBD9
:1013B000C0104FF6FF7101EAC0002649088010BD39
:1013C0000146234A12784A434FF0E0235A61002233
:1013D0009A611A46126942F001021A6100BF4FF089
:1013E000E022106900F001021AB100F48032002AF4
:1013F000F5D04FF0E022126922F001024FF0E02315
:101400001A6100229A6170470146124A12884A43C3
:101410004FF0E0235A6100229A611A46126942F0A5
:1014200001021A6100BF4FF0E022106900F00102D2
:101430001AB100F48032002AF5D04FF0E022126990
:1014400022F001024FF0E0231A6100229A617047F6
:10145000380000203A00002031490143314A116030
:10146000704770B5002100230F22C47804B32D4CBF
:10147000246804F4E064C4F5E064210AC1F10403C3
:10148000CA40447804FA03F18478144021430901E6
:10149000254C0678A155047804F01F050124AC40C2
:1014A00005786D11AD0005F1E025C5F8004109E0B2
:1014B000047804F01F050124AC401C4D0678761119
:1014C00045F8264070BD1A4A0A400243154B1B1FBF
:1014D0001A60704739B1134A121D12680243114B4A
:1014E0001B1D1A6006E00F4A121D126882430D4B45
:1014F0001B1D1A607047042808D14FF0E0210969CC
:1015000041F004014FF0E022116107E04FF0E021CB
:10151000096921F004014FF0E022116170470000D9
:101520000000FA050CED00E000E400E080E100E0DE
:1015300080FFFF1FDF48006840F00100DD490860C0
:1015400008464068DC490840DA49486008460068B7
:10155000DA490840D74908600846006820F480202E
:1015600008600846406820F4FE0048604FF41F0001
:1015700088607047CF49096821F48031CD4A1160F5
:101580001146096821F480211160B0F5803F03D035
:10159000B0F5802F0ED106E0C649096841F48031CC
:1015A000C44A116007E0C349096841F4A021C14A57
:1015B000116000E000BF00BF704710B50146002277
:1015C000002300204A11012A02D1BA4C236806E008
:1015D000022A02D1B74C236A01E0B64C636A01F0DB
:1015E0001F02012494401C400CB1012000E00020A7
:1015F00010BD38B5002000900024002500BF312028
:10160000FFF7DBFF05460098401C00900098B0F5FE
:10161000A06F01D0002DF2D03120FFF7CEFF08B12E
:10162000012400E00024204638BD01460020A14AE4
:10163000106820F0F80040EAC10010607047A0492F
:1016400008607047024600209A4B586820F47C10CE
:1016500042EA01031843974B58607047984908665F
:10166000704701460020934A506820F00300084369
:10167000506070478F48406800F00C00704701468A
:1016800000208C4A506820F0F000084350607047FA
:1016900001460020874A506820F4E060084350600B
:1016A000704701460020834A506820F4605040EAA9
:1016B000C1005060704729B17E4A527A02437D4B87
:1016C0005A7204E07B4A527A82437A4B5A727047CC
:1016D0007B49D8310860704701460020754A506840
:1016E00020F440400843506070470021714A203286
:1016F0001170704A82F82010012802D004280AD103
:1017000004E001216B4A2032117005E00521694A8D
:101710002032117000E000BF00BF704769490860C7
:1017200070476449096A0143624A1162704765491A
:1017300044390860704730B500210022002400239E
:101740005C4D6D6805F00C0121B1042905D0082914
:1017500023D105E05C4D056022E05B4D05601FE094
:10176000544D6D6805F47012524D6D6805F4803467
:10177000022505EB92421CB9544D554305600BE020
:101780004C4D6D6805F400351DB1504D5543056055
:1017900002E04D4D5543056002E04B4D056000BF32
:1017A00000BF444D6D6805F0F0010909484D6B5CC0
:1017B0000568DD4045603F4D6D6805F4E061090A4C
:1017C000434D6B5C4568DD4085603A4D6D6805F4BE
:1017D0006051C90A3E4D6B5C4568DD40C560354DC2
:1017E0006D6805F44041890B3A4D6B5CC568B5FBEB
:1017F000F3F5056130BD29B12E4A526902432D4BE4
:101800005A6104E02B4A526982432A4B5A6170475D
:1018100029B1284A92690243264B9A6104E0254A7D
:1018200092698243234B9A61704729B1214AD26958
:101830000243204BDA6104E01E4AD26982431D4B09
:10184000DA61704729B11B4AD2680243194BDA604A
:1018500004E0184AD2688243164BDA60704729B117
:10186000144A12690243134B1A6104E0114A1269C7
:101870008243104B1A617047124940390860704723
:101880000F49C86470470B49C87170470948406ADE
:1018900040F0807007494862704701460020054AC1
:1018A00092680A400AB1012000E000207047014917
:1018B00088727047001002400000FFF8FFFFF6FE3C
:1018C000000042428004424200127A0000093D00BA
:1018D0003C0000204C00002010B50446CC48844257
:1018E00008D101210420FFF7ADFF00210420FFF7FC
:1018F000A9FF46E0C748844208D101210820FFF72C
:10190000A1FF00210820FFF79DFF3AE0C248844272
:1019100008D101211020FFF795FF00211020FFF7CB
:1019200091FF2EE0BD48844208D101212020FFF71D
:1019300089FF00212020FFF785FF22E0B84884427C
:1019400008D101214020FFF77DFF00214020FFF753
:1019500079FF16E0B348844208D101218020FFF7C7
:1019600071FF00218020FFF76DFF0AE0AE4884423E
:1019700007D101218015FFF765FF0021A015FFF7B2
:1019800061FF10BD10B501210846FFF75BFF002184
:101990000120FFF757FF10BD2DE9F0410246002559
:1019A0000026002000230024002791F803C00CF03B
:1019B0000F0591F803C00CF0100CBCF1000F03D020
:1019C00091F802C04CEA050591F800C0BCF1000F87
:1019D00031D0146800202BE04FF0010C0CFA00F31A
:1019E000B1F800C00CEA03069E4220D183004FF0FC
:1019F0000F0C0CFA03F7BC4305FA03FC4CEA040491
:101A000091F803C0BCF1280F06D14FF0010C0CFA7D
:101A100000FCC2F814C00AE091F803C0BCF1480F02
:101A200005D14FF0010C0CFA00FCC2F810C0401CAC
:101A30000828D1D31460B1F800C0BCF1FF0F34DD29
:101A4000546800202EE000F1080C4FF0010808FA5D
:101A50000CF3B1F800C00CEA03069E4221D18300CA
:101A60004FF00F0C0CFA03F7BC4305FA03FC4CEAE9
:101A7000040491F803C0BCF1280F05D100F1080C53
:101A800008FA0CF8C2F8148091F803C0BCF1480FB2
:101A900007D100F1080C4FF0010808FA0CF8C2F861
:101AA0001080401C0828CED35460BDE8F0814FF66A
:101AB000FF710180022181700421C17070470246CC
:101AC000002093680B400BB1012000E0002070471C
:101AD0000146886880B2704702460020D3680B40F8
:101AE0000BB1012000E0002070470146C86880B2B9
:101AF000704701617047416170470AB1016100E0C0
:101B000041617047C16070474FF480320A4382617F
:101B10008161826182698269704702460020434B7D
:101B200018684FF68073184040EA021008433F4B94
:101B3000186070473E49C8617047F0B50A460023F7
:101B400000240021002500F00046B6F1004F02D12C
:101B5000364EF16901E0354E7168C0F3034583B23A
:101B600000F44016B6F5401F08D121F070612F4EE9
:101B7000766826F070662D4F7E6012E000F48016C5
:101B8000B6F5801F06D1032606FA05F4A14341F0FD
:101B9000706106E0460D360103FA06F6B14341F0E6
:101BA000706122B1460D360103FA06F6314300F0AA
:101BB0000046B6F1004F02D11C4EF16101E01B4E10
:101BC0007160F0BD30B500228B071C0F0F2303FAA4
:101BD00004F2164B08338C1053F824309343134C03
:101BE00008348D1044F8253023468C1053F82430E7
:101BF0008C07240F00FA04F423430C4C08348D1096
:101C000044F8253030BD0A49DC31086070470000D7
:101C100000080140000C0140001001400014014088
:101C200000180140001C014000200140000001405C
:101C300000002042002044490860091D0860091D79
:101C40000860091D086041483F4914310860704729
:101C500000213D498279002A3AD00A461268036879
:101C60009A430B461A600A1D126803689A430B1DBB
:101C70001A60027911440A6803681A430A60324AFA
:101C80000832126803689A432F4B08331A601A1DF2
:101C9000126803689A432C4B0C331A604279102A5D
:101CA0000ED11A1F126803681A43274B08331A60B3
:101CB0001A1D126803681A43234B0C331A600DE097
:101CC0002149427911440A6803681A430A6005E011
:101CD000027911440A6803689A430A607047002138
:101CE000016001710C214171002181717047164919
:101CF000103109680143144A1032116070470146DF
:101D00000020114A143212680A400AB1012000E092
:101D1000002070470C4914310860704701460020CC
:101D20000022094B1B6803EA0102074B14331B68AE
:101D30000B4013B10AB1012000E0002070470249B6
:101D4000143108607047000000040140FFFF0F00DD
:101D500010B50446BE48844208D101218014FFF723
:101D600071FD0021A014FFF76DFD16E0B948844213
:101D700008D101210014FFF772FD00212014FFF7A4
:101D80006EFD0AE0B448844207D10121C013FFF779
:101D900066FD0021E013FFF762FD10BD10B50022C3
:101DA000028802F441520B884C8823438C882343D9
:101DB000CC8823430C8923434C8923438C892343B8
:101DC000CC8923431A430280838B4FF2FF74234054
:101DD00083830B8A038210BD2DE9F04F85B0054641
:101DE0000C464FF0000902274FF000084FF0010B9E
:101DF0000026B246A88B4FF240010840A88302207B
:101E00002884B5F81C90A068022801D100BF38E0F2
:101E1000A08810B94FF0010B01E04FF0020B8D4884
:101E2000854200D100E000BF6846FFF784FCDDF882
:101E300000A0E088B0F5007F0AD14FEA1A2000EB3D
:101E400080004000A168B0FBF1F0401D86B20BE0BD
:101E50004FEA4B10BAFBF0F000EB80004000A168A5
:101E6000B0FBF1F0401D86B20A20B6FBF0F606F09A
:101E70000108A6EB0800C0F34F074FF6FF7000EA19
:101E80000828022F01DBFF2F02DD02274FF0000898
:101E9000E08840EA080038432884A088A1890843E4
:101EA000618808432188084340F4006040EA09093A
:101EB000A5F81C9005B0BDE8F08F0021018041809D
:101EC0008180C180018141818181C181072101829D
:101ED00070470021018041808180C18002218160A2
:101EE00000218181704721B1028842F040020280C6
:101EF00004E002884FF6BF731A400280704721B198
:101F0000828B42F48062828304E0828B4FF6FF333F
:101F10001A408283704730B5002400230C1101253C
:101F2000A540ABB21AB185881D43858002E0858843
:101F30009D43858030BD1AB183880B43838002E0C6
:101F400083888B43838070478181704701468889ED
:101F500070474FF6FF62914204D0028842F48072CB
:101F6000028004E002884FF6FF631A400280704747
:101F700021B1828842F00402828004E082884FF618
:101F8000FB731A408280704702884FF2FF731A4039
:101F9000028002880A4302807047018841F4805120
:101FA0000180704721B1028842F40052028004E0AF
:101FB00002884DF6FF731A400280704702460020E7
:101FC000012901D0108B00E0908A70470146088AF1
:101FD0007047B1F5804F04D1028842F480420280FC
:101FE00004E002884BF6FF731A40028070470246F5
:101FF000002013890B400BB1012000E00020704746
:10200000CA4302817047F0B5024600200024002335
:10201000002501F00F070126BE40B4B20B110126C6
:102020009E40B3B2968806EA03051689264016B18B
:102030000DB1012000E00020F0BD10B5002201F03C
:102040000F040123A3409AB2D343038110BD0000C3
:102050000030014000380040003C004010B504460C
:10206000FB48844209D101218803FFF7EBFB0021E3
:102070004FF48040FFF7E6FB32E0F648844209D196
:1020800001214804FFF7EBFB00214FF40030FFF77C
:10209000E6FB25E0F048844209D101218804FFF7DE
:1020A000DEFB00214FF48020FFF7D9FB18E0EB485E
:1020B000844209D10121C804FFF7D1FB00214FF46C
:1020C0000020FFF7CCFB0BE0E548844208D101215A
:1020D0000805FFF7C4FB00214FF48010FFF7BFFB9A
:1020E00010BD2DE9F04786B005460E460024A246F5
:1020F00000BFA1460027B08900B100BF2F462C8A3F
:102100004CF6FF700440F08804432C82AC894EF6F4
:10211000F3100440B08831890843718908430443AF
:10212000AC81AC8A4FF6FF400440B0890443AC82D6
:1021300001A8FFF700FBC648874202D1DDF810A0D6
:1021400001E0DDF80CA0A88900F4004040B10AEBE2
:10215000CA0000EB0A1031684900B0FBF1F807E053
:102160000AEBCA0000EB0A1031688900B0FBF1F8F5
:102170006420B8FBF0F004012009642101FB108900
:10218000A88900F4004040B1322000EBC900B0FB48
:10219000F1F000F00700044308E0322000EB0910E2
:1021A0006421B0FBF1F000F00F0004432C8106B075
:1021B000BDE8F0874FF41651016000218180C18095
:1021C00001810C21418100218181704710B50246B7
:1021D0000020108A4FF2FF0318400B884C882343DD
:1021E0008C882343CC8823431843108210BD0021E0
:1021F000018041808180C180704721B1828942F491
:102200000052828104E082894DF6FF731A40828178
:102210007047F0B50346002400260025002040F654
:102220006A17B94200D100BF1846C1F3421401F049
:102230001F06012707FA06F5012C01D10C3004E036
:10224000022C01D1103000E014301AB107682F437E
:10225000076002E00768AF430760F0BD1AB1838AE8
:102260000B43838202E0838A8B4383827047028A16
:102270004FF6F0731A400282028A0A4302827047C4
:1022800082894FF2FF731A40828182890A438281D8
:10229000704721B1828942F00202828104E0828982
:1022A0004FF6FD731A4082817047028A4FF6DF7342
:1022B0001A400282028A0A430282704721B1028ACE
:1022C00042F48042028204E0028A4BF6FF731A4015
:1022D00002827047C1F308028280704701468888F5
:1022E000C0F308007047818941F001018181704786
:1022F000028BD2B20283028B42EA01220283704730
:10230000028B02F47F420283028B0A4302837047EE
:1023100021B1828A42F02002828204E0828A4FF652
:10232000DF731A408282704721B1828A42F0100224
:10233000828204E0828A4FF6EF731A4082827047ED
:1023400021B1828A42F00802828204E0828A4FF63A
:10235000F7731A408282704721B1828942F40042A9
:10236000828103E08289C2F30E028281704721B12B
:10237000828A42F40062828204E0828A4FF2FF7312
:102380001A4082827047828A4FF6FB731A4082821B
:10239000828A0A438282704721B1828A42F0020215
:1023A000828204E0828A4FF6FD731A40828270476F
:1023B00002460020B1F5007F00D100BF13880B401A
:1023C0000BB1012000E00020704701F40072B2F56B
:1023D000007F00D100BFCA430280704770B502463B
:1023E000002400230025002040F66A16B14200D1E7
:1023F00000BFC1F3421501F01F03012606FA03F3E3
:10240000012D02D19689334006E0022D02D1168AB1
:10241000334001E0968A33400C12012606FA04F498
:102420001688344013B10CB1012000E0002070BDCB
:1024300010B50022002340F66A14A14200D100BF6B
:102440000A1201249440A3B2DC43048010BD0000B2
:10245000003801400044004000480040004C00406B
:10246000005000400CB50020019000906C480068BE
:1024700040F480306A49086000BF6948006800F491
:10248000003000900198401C0190009818B9019804
:10249000B0F5A06FF1D16248006800F4003010B1CF
:1024A0000120009001E0002000900098012843D115
:1024B0005C48006840F010005A490860084600680F
:1024C00020F0030008600846006840F00200086041
:1024D000534840685249486008464068486008468A
:1024E000406840F4806048600846406820F47C10F2
:1024F00048600846406840F4E810486008460068B4
:1025000040F08070086000BF4548006800F000702F
:102510000028F9D04248406820F003004049486054
:102520000846406840F00200486000BF3C484068F0
:1025300000F00C000828F9D10CBD10B5FFF792FF90
:1025400010BD10B53648006840F0010034490860FD
:1025500008464068344908403149486008460068E8
:10256000324908402E4908600846006820F480205F
:1025700008600846406820F4FE0048604FF41F00E1
:102580008860FFF7DAFF4FF000602949086010BD4E
:1025900010B5002100200022214B5B6803F00C01E4
:1025A00021B1042906D0082928D107E0214B224C6B
:1025B000236027E01F4B204C236023E0184B5B680F
:1025C00003F47010164B5B6803F48032022303EBB4
:1025D000904022B9194B4343174C23600DE0104B38
:1025E0005B6803F4003323B1144B4343124C236064
:1025F00003E0104B4343104C236003E00D4B0E4CA3
:10260000236000BF00BF064B5B68C3F303130C4C91
:10261000E15C094B1B68CB40074C236010BD0000F8
:1026200000100240002002400000FFF8FFFFF6FE0D
:1026300008ED00E000127A005000002000093D0083
:10264000540000200648804706480047FEE7FEE7A2
:10265000FEE7FEE7FEE7FEE7FEE7FEE7FEE7FEE752
:1026600043250008310100080146002070470000A2
:102670002DE9FF4FA3B06FF0030223982399406820
:1026800002908968209123990988189102EB8101B1
:10269000084403902698C0081F9000F0848318987F
:1026A000C008219024980168039801602498039938
:1026B00050F8042F41F8042F50F8042F41F8042F4C
:1026C00050F8042F41F8042F00220C92019213922B
:1026D000129210920F920E920D92209D029C50F831
:1026E000042F41F8042F50F8042F41F8042F50F81C
:1026F000042F41F8042F42684A60083108300391E2
:10270000249054F8040B0B9054F804AB54F8040BC9
:10271000089054F8049BDDF884B054F8048BBBF1A6
:10272000000F54F8047B54F8046B00F0B28200BF31
:1027300055F8040B009054F8040B0A9000990B987C
:1027400000F02BFD11905046009900F026FD1B90E3
:102750000099089800F021FD17904846009900F074
:102760001CFD1A904046009900F017FD199038465C
:10277000009900F012FD16903046009900F00DFD12
:10278000159000990A9800F008FD149055F8040B74
:10279000009054F8040B0B901199019800F0A5FCDF
:1027A00001901B99139800F0A0FC139017991298B0
:1027B00000F09BFC12901A99109800F096FC109073
:1027C00019990F9800F091FC0F9016990E9800F04F
:1027D0008CFC0E9015990D9800F087FC0D901499C3
:1027E0000C9800F082FC0C905046009900F0D5FC4B
:1027F00011900099089800F0D0FC1B904846009971
:1028000000F0CBFC17904046009900F0C6FC1A90EF
:102810003846009900F0C1FC19903046009900F04C
:10282000BCFC169000990A9800F0B7FC159000992E
:102830000B9800F0B2FC149055F8040B009054F87B
:1028400004AB1199019800F050FC01901B9913986A
:1028500000F04BFC13901799129800F046FC129070
:102860001A99109800F041FC109019990F9800F0F7
:102870003CFC0F9016990E9800F037FC0E901599BD
:102880000D9800F032FC0D9014990C9800F02DFC7E
:102890000C900099089800F080FC1190484600992F
:1028A00000F07BFC1B904046009900F076FC1790EE
:1028B0003846009900F071FC1A903046009900F0FB
:1028C0006CFC199000990A9800F067FC169000992A
:1028D0000B9800F062FC15905046009900F05DFCEA
:1028E000149055F8040B009054F8040B08901199BB
:1028F000019800F0FAFB01901B99139800F0F5FB8A
:1029000013901799129800F0F0FB12901A991098F2
:1029100000F0EBFB109019990F9800F0E6FB0F9078
:1029200016990E9800F0E1FB0E9015990D9800F0A5
:10293000DCFB0D9014990C9800F0D7FB0C904846E6
:10294000009900F02AFC11904046009900F025FC07
:102950001B903846009900F020FC179030460099F3
:1029600000F01BFC1A9000990A9800F016FC1990D0
:1029700000990B9800F011FC16905046009900F059
:102980000CFC15900099089800F007FC149055F87D
:10299000040B009054F8049B1199019800F0A5FBDA
:1029A00001901B99139800F0A0FB139017991298AF
:1029B00000F09BFB12901A99109800F096FB109073
:1029C00019990F9800F091FB0F9016990E9800F04E
:1029D0008CFB0E9015990D9800F087FB0D901499C3
:1029E0000C9800F082FB0C904046009900F0D5FB5B
:1029F00011903846009900F0D0FB1B9030460099AA
:102A000000F0CBFB179000990A9800F0C6FB1A90D3
:102A100000990B9800F0C1FB19905046009900F006
:102A2000BCFB16900099089800F0B7FB159048463B
:102A3000009900F0B2FB149055F8040B009054F884
:102A4000048B1199019800F050FB01901B99139889
:102A500000F04BFB13901799129800F046FB129070
:102A60001A99109800F041FB109019990F9800F0F6
:102A70003CFB0F9016990E9800F037FB0E901599BD
:102A80000D9800F032FB0D9014990C9800F02DFB7E
:102A90000C903846009900F080FB11903046009968
:102AA00000F07BFB1B9000990A9800F076FB1790D2
:102AB00000990B9800F071FB1A905046009900F0B5
:102AC0006CFB19900099089800F067FB1690484637
:102AD000009900F062FB15904046009900F05DFB04
:102AE000149055F8040B009054F8047B1199019848
:102AF00000F0FBFA01901B99139800F0F6FA13907E
:102B00001799129800F0F1FA12901A99109800F0A3
:102B1000ECFA109019990F9800F0E7FA0F901699B7
:102B20000E9800F0E2FA0E9015990D9800F0DDFA7B
:102B30000D9014990C9800F0D8FA0C90304600993A
:102B400000F02BFB119000990A9800F026FB1B90D7
:102B500000990B9800F021FB17905046009900F067
:102B60001CFB1A900099089800F017FB1990484632
:102B7000009900F012FB16904046009900F00DFB02
:102B800015903846009900F008FB149055F8040B96
:102B9000009054F8046B1199019800F0A6FA019086
:102BA0001B99139800F0A1FA13901799129800F04E
:102BB0009CFA12901A99109800F097FA10901999AF
:102BC0000F9800F092FA0F9016990E9800F08DFA77
:102BD0000E9015990D9800F088FA0D9014990C98A4
:102BE00000F083FA0C9000990A9800F0D6FA119040
:102BF00000990B9800F0D1FA1B905046009900F014
:102C0000CCFA17900099089800F0C7FA1A90484635
:102C1000009900F0C2FA19904046009900F0BDFA00
:102C200016903846009900F0B8FA15903046009991
:102C300000F0B3FA1490ABF1010B1199019800F078
:102C400054FA01901B99139800F04FFA13901799BA
:102C5000129800F04AFA12901A99109800F045FA6A
:102C6000109019990F9800F040FA0F9016990E984D
:102C700000F03BFA0E9015990D9800F036FA0D9081
:102C800014990C9800F031FA0C90BBF1000F7FF40E
:102C90004FAD189810F0070B63D000BF55F8040B28
:102CA000009054F8040B0A9000990B9800F075FA04
:102CB00011905046009900F070FA1B900099089806
:102CC00000F06BFA17904846009900F066FA1A90E7
:102CD0004046009900F061FA19903846009900F0DA
:102CE0005CFA16903046009900F057FA159000995A
:102CF0000A9800F052FACDF82CA0DDF820A0CDF80B
:102D00002090C1461490B84637460A9E1199019802
:102D100000F0EBF901901B99139800F0E6F913907D
:102D20001799129800F0E1F912901A99109800F092
:102D3000DCF9109019990F9800F0D7F90F901699B7
:102D40000E9800F0D2F90E9015990D9800F0CDF97B
:102D50000D9014990C9800F0C8F90C90BBF1010B80
:102D60009CD10298203002902599019808602598FE
:102D7000139940F8041F129940F8041F109940F865
:102D8000041F0F9940F8041F0E9940F8041F0D9975
:102D900040F8041F0C994160083025901F98401E90
:102DA0001F907FF47FAC269810F0070850D024982D
:102DB00000250168039801602498209E001D24903E
:102DC0000398029C001D0390DDF860903168206834
:102DD00000F0E3F9294600F088F9371D261D054665
:102DE000B9F1010429D0B4F1004F7DD2002C24DDCB
:102DF000361F3F1F14F0010F09D057F8041F56F873
:102E0000040F00F0CAF9294600F06FF90546641076
:102E100013D07968706800F0C0F9294600F065F9B0
:102E2000054657F8081F56F8080F00F0B6F929466E
:102E300000F05BF90546641EEBD1259805602598E6
:102E4000001D25900298001D0290B8F10108AED136
:102E50002398189940684C1EA30820D0B3F1004F66
:102E600056D2002B1BDD029A01469C4652F8045BA9
:102E700041F8045B52F8045B41F8045B52F8085BCC
:102E800041F8085B52F8045C41F8045CBCF1010CA9
:102E9000ECD1029900EB031001EB0311029114F045
:102EA000030104BF27B0BDE8F08FB1F1004F44D259
:102EB0000029DCBF27B0BDE8F08F031F029A121F64
:102EC00011F0010F03D052F8040F43F8040F480823
:102ED00004BF27B0BDE8F08F5168596052F8081F51
:102EE00043F8081F401E00E003E0F5D127B0BDE81D
:102EF000F08F3968306800F050F9294600F0F5F895
:102F00000546641E06F1040607F10407F1D194E7B3
:102F10000299096840F8041B029951F8042F40F8FF
:102F2000042B51F8042F40F8042B4A68083140F86C
:102F3000042B02915B1EEBD1B1E7029A126840F8B4
:102F4000042B029A121D0292491EF6D127B0BDE849
:102F5000F08F70B504460498218008448000011F5A
:102F60001D461846A26000F08DF8656070BD30B552
:102F70000B46014600202022012409E021FA02F537
:102F80009D4205D303FA02F5491B04FA02F52844D1
:102F9000151EA2F10102F1DC30BD2DE9FE43994678
:102FA00015468846074601AC022942D3002D40D081
:102FB00000200290A8F101004FF0FF36009022E0BF
:102FC00000FB057201FB057011464A469047002838
:102FD00005DC54F82600304444F8260013E060680D
:102FE0002A4600FB057154F8040C00FB057007E04D
:102FF0000B7890F800C001F801CB00F8013B521E9D
:10300000002AF5D1764254F8040C61688842D7DC76
:103010004B462A463846FFF7C0FF54F8040C4B468F
:10302000A8EB0001401C00FB05702A46491EFFF773
:10303000B4FFBDE8FE8310B5431A934209D283184A
:10304000881803E010F8011D03F8011D521EF9D283
:1030500010BD40EA01039B0703D009E008C9121F15
:1030600008C0042AFAD203E011F8013B00F8013B42
:10307000521EF9D210BDD2B201E000F8012B491E58
:10308000FBD270470022F6E710B513460A46044605
:103090001946FFF7F0FF204610BDCAB2401E10F8D7
:1030A000011F8A4202D00029F9D100207047421C3A
:1030B00010F8011B0029FBD1801A704710B50022BF
:1030C00000E0521C835C8C5CA34201D1002BF8D140
:1030D000D8B2E1B2401A10BD034611F8012B00F836
:1030E000012B002AF9D118467047F0B480EA01029A
:1030F000D40F4200B2EB410F02D2024608461146FD
:103100004A0042D0C30DDDB2C1F3C752AD1A202D23
:1031100035DAC1F3160141F4000204B15242C5F19F
:10312000200602FA06F12A411044B3EBD05F23D007
:10313000C4B1012DA0EBC35009DCF0BC4FF000423C
:1031400002EAC352DBB200F5000000F0F0BA400022
:1031500000F1807000EBC350A0F1807040EAD170A4
:10316000490009E0490841EAC071A0EBC35000F5ED
:103170000000400800EBC350F0BC00F0CFBA614241
:10318000012202EB4101001BF6E7F0BC704781F021
:103190000041AAE780F00040A7E780EA010210B5ED
:1031A00002F00043400022D04A001FD0010E01EB84
:1031B0001261C0F35600C2F3560240F4000042F41C
:1031C0000002A0FB022000047F39140400D0401C40
:1031D00050EA124001D44000491EC2B20C0604EB72
:1031E000D010401C4008802A02D003E0002010BD0F
:1031F00020F00100002900DA0020184310BD30B48F
:1032000080EA010202F0004530F0004221F0004067
:1032100013D090B1C30DD40DC2F31601C0F3160044
:10322000E41A41F4000140F400027D34914201D3DC
:10323000641C00E04900002C02DA30BC002070471A
:103240004FF400000023914201D3891A0343400840
:103250004FEA4101F7D151B1914202D14FF0004103
:1032600005E002D24FF0010101E06FF0010103EB34
:10327000C450284430BC00F051BA2DE9FE4F8046BE
:1032800081EA0300C00F0C46009021F0004123F0BA
:103290000045B8EB0200A94105D2404621469046C0
:1032A0001C460B46024623F00040104347D0270D32
:1032B000C7F30A00C3F30A510290401A0190402854
:1032C0006BDAC3F3130040F4801B0098924620B1E0
:1032D0000023D2EB030A63EB0B0B01985946C0F1B4
:1032E0004002504600F0F9F906460D465046594650
:1032F000019A00F001FA10EB08006141002487EA0E
:10330000115284EAE7731A4340D0009A62B3019ADB
:10331000012A4FEA075215DC001B61EB02014FF056
:10332000004202EA0752CDE90042001C41F580113B
:1033300032462B4600F038FA03B0BDE8F08F404625
:103340002146F9E7001B61EB0201001C41F58013E7
:1033500000185B412018A2F5001747EB030140EA73
:10336000D570B6196D4111E06D084FEA360645EA91
:10337000C0754FEA0752001B61EB0201001C41F5CA
:10338000801149084FEA30000019514132462B465E
:1033900003B0BDE8F04F00F0F8B9009801224000FA
:1033A0000023D0EB020263EBE073009821464FEA62
:1033B000E074B8EB000061EB0401E9E783F000433F
:1033C0005BE781F0004158E72DE9FE4F81EA0304F5
:1033D00004F0004421F0004100944FF0000B23F072
:1033E000004350EA01045ED052EA03045BD0C3F309
:1033F0000A54C1F30A552C44A4F2F3340194A0FBFF
:103400000254C1F3130141F48011C3F3130343F4D5
:10341000801301FB024400FB034E840A970A44EA2E
:10342000815447EA8357A4FB076802958D0A05FB80
:1034300007854FEA932C04FB0C542705029D4FEAA5
:10344000065847EA1637B5EB08056EEB070C870EF2
:10345000920E47EA811742EA8312A7FB0201B6EBFC
:103460000B0164EB00042B0D43EA0C335E1844EBB4
:103470001C50DA465146E7FB0201C5F313044FEA3C
:103480000B3343EA14534FEA0432019C43EA060328
:10349000A4F10C040294009CCDE900B400F084F97E
:1034A00003B0BDE8F08F00200146F9E72DE9F04DAB
:1034B00081EA030404F0004B21F0004514464FF06C
:1034C000000A23F0004150EA050220D054EA01022C
:1034D0001DD0C5F30A570246C5F31303C1F3130009
:1034E000C1F30A5640F4801543F48013A7EB060895
:1034F000101BD64608F2FD3873EB050002D308F125
:10350000010801E092185B41B8F1000F03DA0020D6
:103510000146BDE8F08D00204FF480110646844638
:103520000EE0171B73EB050705D3121B63EB0503B6
:1035300006434CEA010C49084FEA300092185B41FF
:1035400050EA0107EDD152EA030012D082EA0400EA
:1035500083EA0501084305D0101BAB4106D20122C6
:10356000002306E000224FF0004302E06FF001026A
:1035700053101AEB06004CEB085110EB0A0041EB1C
:103580000B01BDE8F04D00F000B9C10F80EAE0701A
:103590000844CA079623002100F0C9B896230022E8
:1035A000114600F0C4B80EB5C10F80EAE0700844BF
:1035B000CA07002140F233438DE80E000A460B464D
:1035C00000F0F2F803B000BD20F00040C10DC0F3E0
:1035D000160040F400007F2901DA00207047962988
:1035E00003DCC1F19601C8407047963988407047A6
:1035F00000F0004230F000400AD0C10D01F56071CA
:10360000C0F3160042EA0151C20840071143704757
:1036100000200146704701F0004330B421F0004122
:1036200050EA010206D00A0DA2F56072C1F313013F
:10363000002A02DC30BC00207047440F44EAC10479
:10364000C100E01830BC00EBC25000F067B80000C9
:10365000002801DBC0F10040002901DBC1F100417D
:1036600081427047002801DBC0F10040002901DBE6
:10367000C1F10041884270472DE9F05F0546002006
:1036800092469B4688460646814640241BE02846D3
:1036900041464746224600F017F953465A46C01A9B
:1036A000914110D311461846224600F016F82D1A03
:1036B00067EB01084F4622460120002100F00DF87B
:1036C00017EB00094E41201EA4F10104DFDC48463F
:1036D00031462A464346BDE8F09F202A04DB203AC3
:1036E00000FA02F1002070479140C2F1200320FA55
:1036F00003F3194390407047202A06DBCB17203A8A
:1037000041FA02F043EAE07306E041FA02F3D040E6
:10371000C2F1200291400843194670470029A8BF12
:103720007047401C490008BF20F00100704710B4EA
:10373000B0FA80FC00FA0CF050EA010404BF10BC9F
:10374000704749B1CCF1200421FA04F411FA0CF1CC
:1037500018BF012121430843A3EB0C01CB1D4FEA05
:1037600000614FEA102042BF002010BC704700EB00
:10377000C35010440029A4BF10BC7047401C49002E
:1037800008BF20F0010010BC704710B5141E73F183
:10379000000408DA401C41F1000192185B411A4311
:1037A00001D120F0010010BD2DE9F04D92469B465D
:1037B00011B1B1FA81F202E0B0FA80F22032904603
:1037C000FFF78BFF04460F4640EA0A0041EA0B016F
:1037D00053465A46084313D0114653EA010019D004
:1037E000C8F14002504600F06FF805460E465046BC
:1037F00059464246FFF771FF084305D0012004E017
:1038000020463946BDE8F08D0020054346EAE076C3
:103810002C4337430A986305E40AA0EB0800002212
:10382000FD0A44EA47540A3002D500200146E9E780
:10383000010510196941DDE9084500196941BDE834
:10384000F04DA2E7C1F30A52C1F3130140F2FF3376
:1038500041F480119A4202DA00200146704740F29A
:1038600033439A42A2F2334202DC524200F02CB8B7
:10387000FFF733BF30B5041E71F1000404DB4FF0D5
:103880000044404264EB0101141E73F1000405DBA7
:103890001C464FF00043524263EB0403994208BFB9
:1038A000904230BD064C074D06E0E06840F0010351
:1038B00094E8070098471034AC42F6D3FCF73CFC80
:1038C000E45E0008045F0008202A04DB203A21FAA5
:1038D00002F00021704721FA02F3D040C2F1200229
:1038E00091400843194670470FB4054B10B503A922
:1038F000044A029800F028F910BC5DF814FB00009F
:10390000A5060008240000200FB41CB50A46521E6C
:10391000CDE9000207A9054B6A46069800F014F9A4
:10392000009A002111701CBC5DF814FB774200085E
:103930000FB4084B10B504A902AA039800F004F9CB
:10394000044602A9002000F0A1FC204610BC5DF84E
:1039500014FB00008D4200087CB5491E1C4615462C
:10396000CDE90001044B6A462146284600F0ECF8F8
:10397000009A002111707CBD7742000830B4744673
:10398000641E2578641CAB4200D21D46635D5B005B
:10399000E31830BC1847012249005205D14201D139
:1039A000002801D00020704701207047002800D077
:1039B00001200143480002494008081AC00F70471F
:1039C0000000F07F02E008C8121F08C1002AFAD1E7
:1039D00070477047002001E001C1121F002AFBD18F
:1039E000704700002DE9FF5FDDE90220010DDDF8E1
:1039F00038B0024318D044F61050A1F2FF314143D1
:103A00000D140F98012820D0A5EB0B00401C5FEA95
:103A1000000A4FF00004474EDFF81C91A0465046C4
:103A200016D5CAF1000728E00F98012443A2012807
:103A300008D0002100980F9BC0E90021C0E9024393
:103A4000BDE8FF9F6FEA0B01F4E7CBF10000DEE772
:103A5000074612E0F80707D022463346404649465B
:103A6000FFF7B2FC80468946224633461046194687
:103A7000FFF7AAFC04460E467F10002FEAD1DDE9CD
:103A80000201BAF1000F42464B4602DAFFF79CFCF6
:103A900001E0FFF70BFD04460E460022284BFFF71E
:103AA000E9FE03D84FF0FF30014607E00022254B26
:103AB00020463146FFF7E1FBFFF7C4FE102409E082
:103AC000002C0ADB0A220023FFF7D6FD019B3032CF
:103AD0001A55641E50EA0102F2D1641C019AC4F125
:103AE000110314440F9A012A03D0012208430DD177
:103AF0000AE0084304D000204FF0110B0F9080E73C
:103B0000A3EB0B056D1E0DE05B4504DD4FF00002DD
:103B100005F1010504E003DA4FF00002A5F101050B
:103B2000002AECD000980F99C0E90231C0E90045A5
:103B300086E70000000024400000F03F3000000055
:103B40000000F0430000E03F2DE9FF4F95B09B4699
:103B50008946064600250FE2252877D1002427460E
:103B6000F84A0121059400E0044316F8013F203B88
:103B700001FA03F01042F7D130782A2811D06FF003
:103B80002F033078A0F13002092A16D8059A44F0A4
:103B9000020402EB820203EB42021044761C059001
:103BA000EFE759F8042B0592002A03DA504244F457
:103BB0000054059044F00204761C30782E2816D16B
:103BC00016F8010F44F004042A280DD06FF02F02DC
:103BD0003078A0F13003092B09D807EB870302EBFB
:103BE0004303C718761CF3E759F8047B761C30783A
:103BF0006C280FD006DC4C2817D068280DD06A2816
:103C000014D104E0742810D07A280FD10DE044F4C8
:103C100000140AE044F4801401E044F44014727883
:103C2000824202D104F58014761C761C3078662816
:103C30000BD013DC582877D009DC002875D0452834
:103C4000F6D04628F4D047281AD19DE118E0632821
:103C500035D0642879D0652812D195E1702873D0C9
:103C600008DC6728F1D069286FD06E280DD06F2846
:103C700006D1B5E073282CD0752875D0782874D07B
:103C80005A46179990476D1C75E1C4F302500228FB
:103C900009D003280DD0D9F8001004280DD00D60EC
:103CA00009F1040967E1D9F80010EA17C1E90052E7
:103CB000F6E7D9F800100D80F2E70D70F0E719F87B
:103CC000041B8DF8001000208DF80100EA46012049
:103CD00003E059F804AB4FF0FF3061074FF00001EB
:103CE00002D40DE008F101018846B9420FDA80459F
:103CF000F8DB1AF808100029F4D108E008F10101F6
:103D000088468142FADB1AF808100029F6D1059896
:103D10005B46A0EB080721463846179A00F094FA54
:103D2000284400EB080507E04DE029E10DE01AF812
:103D3000010B5A4617999047B8F10108F7D25B4634
:103D400021463846179A13E142E00A220092C4F352
:103D500002524FF0000A022A08D059F804CB032A75
:103D60004FEAEC710AD00DE029E02AE009F10701E1
:103D700021F00702F2E802C1914609E00FFA8CFC3B
:103D80004FEAEC71042A03D14FFA8CFC4FEAEC7134
:103D9000002907DA0A460021DCF1000C61EB020180
:103DA0002D2202E0220504D52B228DF804200122C9
:103DB00003E0E20701D02022F7E7904659E00A210C
:103DC00002E010220DE010214FF0000A00910BE0FC
:103DD00010224FF0000A44F004040827009203E088
:103DE00008224FF0000A0092C4F30252022A05D0C2
:103DF00059F804CB0021032A08D009E009F1070192
:103E000021F00702F2E802C1914605E01FFA8CFC9E
:103E1000042A01D10CF0FF0C4FF00008220728D52E
:103E2000702806D0009B83F0100353EA0A0305D0E4
:103E30000EE040228DF80420012208E05CEA010235
:103E400006D030228DF804208DF80500022290461D
:103E5000009B83F0080353EA0A030AD15CEA0102DB
:103E600001D1620705D530228DF804204FF00108FA
:103E70007F1E582804D034A003900EA802900DE0B5
:103E800036A0F9E753466046009AFFF7F5FB8446F3
:103E90000398825C0298401E029002705CEA010066
:103EA000F0D1029806A9081A00F1200A600702D58D
:103EB00024F4803400E00127574502DDA7EB0A0017
:103EC00000E0002000EB0A01009005984144401AF0
:103ED0000590E00306D45B462146179A059800F04A
:103EE000B3F90544002706E001A85A46C05D1799BA
:103EF00090476D1C7F1C4745F6DBE0030CD55B4605
:103F00002146179A059800F09FF9054404E03020F7
:103F10005A46179990476D1C0099481E0090002939
:103F2000F5DC08E0029802995A460078491C029193
:103F3000179990476D1CBAF10001AAF1010AF1DC52
:103F400065E100000928010030313233343536375D
:103F500038396162636465660000000030313233D5
:103F60003435363738394142434445460000000075
:103F700000F058F90544761C307800287FF4ECAD49
:103F800019B02846BDE8F08F620700D4062709F172
:103F9000070222F0070CFCE80223E14603F0004888
:103FA0005FEA080C02D00FF2702C0DE05FEA045CAF
:103FB00002D50FF2682C07E05FEAC47C02D00FF252
:103FC000602C01E0AFF2700C4FF0FF3823F000439B
:103FD000CDF850C065280CD006DC452809D046280D
:103FE0001DD047283DD13DE0662818D067287ED1F6
:103FF00038E00021112F01DB112000E0781CCDE911
:10400000000106A90EA8FFF7EDFCDDE90F010E9AED
:1040100003910021009207F1010A04914DE04FF055
:1040200000400097CDE9011006A90EA8FFF7DAFCC1
:10403000DDE90F0203920E9B11990022DDF80CA01E
:104040000093049211B9791C00EB010AB7EB0A0046
:1040500004D4C0F1FF3007F1010A0490AAEB070075
:10406000019044E0012F00DA01270021112F01DD2A
:10407000112000E03846CDE9000106A90EA8FFF79F
:10408000B1FCDDE90F010E9A039100210491009229
:10409000BA4621070CD40399514500DA8A46BAF191
:1040A000010F05DD009AAAF10101515C302908D009
:1040B000B84202DA10F1040F06DA0121CDE901104D
:1040C00015E0AAF10101E9E7002805DC04990144A3
:1040D0000491AAEB000102E0411C514500DD8A4633
:1040E0000499401A401C01904FF0004002902007B4
:1040F00004D40198504501DBCDF8048000208DF8F0
:104100004F0002980DF14F07B0F1004F25D02B2042
:104110000E9002984FF0020800280CDA40420290FC
:104120002D200E9007E00A210298FEF720FF303183
:10413000029007F8011DB8F10001A8F10108F2DCB6
:1041400002980028EFD1791E0E980870307800F0A0
:10415000200040F0450007F8020D12A8C01B00F136
:1041600007081498007800B1012000EB0A010198BB
:1041700001EBE07105984144401A401E0590E003B0
:1041800006D45B462146179A059800F05DF8054471
:104190001498007818B15A46179990476D1CE0039F
:1041A00024D55B462146179A059800F04DF8054442
:1041B0001CE00498002807DBDDE90301884203DDE9
:1041C0000098405C179901E0179930205A469047B3
:1041D000049805F10105401C04900198401E0190CF
:1041E00004D12E205A46179990476D1CBAF1000150
:1041F000AAF1010ADDDC05E017F8010B5A46179910
:1042000090476D1CB8F10001A8F10108F4DC5B4691
:104210002146179A0598ABE62D0000002B00000000
:10422000200000002DE9F041044600251E461746F7
:10423000880404D405E039462020B0476D1C641E74
:10424000F9D52846BDE8F0812DE9F0410446002566
:104250001E469046C80301D5302700E02027880479
:1042600004D505E041463846B0476D1C641EF9D5BB
:104270002846BDE8F0814A68002A06D00A68531C27
:104280000B6010704868401E486070470A68531CF5
:104290000B601070704770B50D4604998C00990042
:1042A0008918AA0010182246FEF7C5FE70BD0A68DC
:1042B0000C30824204D14868824201D1012070470B
:1042C00000207047FFB59DB01D98269D1C460E46E8
:1042D00000287DD0007801210300FFF74FFB0898EC
:1042E00041321121090D05792A460421C9A08EE128
:1042F0002A460421C9A08AE12A460521C9A086E1EF
:104300001D9800F0A1FD01910090C8A2642102A8AF
:10431000FFF7FAFA014664285AD22A4602A876E143
:104320001D9800F05EFE3204D20E009202460B464B
:10433000642101A800F0DEFE010049D42A4601A84C
:1043400065E11D9800F059FE07461D9800F05EFEDD
:104350002B4622463946009600F0AEF921B0F0BD5A
:104360001D9F7869002842D179611D9800F0C4FC36
:1043700002902A460121AFA0A047002837D1029819
:1043800000280AD01F992346002200953046491C78
:1043900000F062F900282AD134E0002078612A4632
:1043A0000121A5A033E101461D9800F071FC1F9A80
:1043B000234600953146521CFFF784FF002816D192
:1043C00002980199401E814214DA2A46012100E038
:1043D00014E19AA0A047002809D11F992346012281
:1043E00000953046491C00F037F9002808D000201D
:1043F000786103E123460022009530461F99F2E7D9
:104400000198401C029901908842CCDBC5E7B006B8
:1044100003D58BA00390012002E08AA00390022024
:1044200005901D980890006A00287DD108980162C7
:104430001D9800F04DFD06902A46012182A0A0475C
:104440000028F2D1069800286FD01F992346002239
:1044500000953046491C00F0FFF80028E5D1F00532
:10446000800F75D01D9800F08DFD0290C00000F007
:10447000E7FE0190002857D00027069800F059FB6E
:104480000146F800019A00901150069800F02CFDAA
:104490000146019A00988018416006991D9800F025
:1044A00029FD7F1C06900028E7D10298874228D179
:1044B000300601D5654B00E0654B08220299019852
:1044C000FEF76BFD00274BE00198F90008184068E3
:1044D000069001461D9800F0EDFC0990002810D0D0
:1044E0000698FEF7E4FD01462B4622460096069804
:1044F00000F0E2F82A4605990398A047002823D146
:1045000001E0AFF300801F9A234600953146521C0C
:104510000998FFF7D7FE002816D10298401E87425F
:1045200017D22A46012101E065E06AE043A0A047D6
:10453000002809D11F992346012200953046491CC5
:1045400000F08AF800280AD0019800F071FE52E0CD
:1045500039E023460022009530461F99F0E77F1C82
:1045600002988742B0D3019800F062FE49E00698B5
:1045700000F0CEFC1F9A234600953146521CFFF7EF
:10458000A1FE002837D10498002810D02A46012126
:104590002AA0A04700282ED11F992346012200956A
:1045A0003046491C00F058F8002824D109E0234681
:1045B0000022009530461F9900F04EF800281AD1CD
:1045C0001FE00498069006991D9800F093FC049053
:1045D000069800F089FC0746FEF769FD01462B4668
:1045E00022463846009600F067F82A460599039857
:1045F000A0470028BBD00899002008620020C043D3
:10460000ACE60899002008622A46012111A0A047C3
:10461000A4E600006E756C6C000000007472756595
:104620000000000066616C7365000000256C6C641E
:10463000000000005B0000005D0000002C00000096
:104640003A0000003A2000007B0000008D53000873
:10465000995300087D000000F8B50E461C46C106BF
:1046600018D0C006C00E0090012110A0069AA047E5
:104670000027FF43002807D1002508E00C48069AD0
:104680000099A047002801D03846F8BD6D1CB542FE
:10469000F4DB08E0002A06D0800604D4012105A03E
:1046A000069A9847F8BD0020F8BD00000A000000F7
:1046B000C05E000820000000FFB589B00F46064626
:1046C0000B9B012140A00C9A9847002875D13546D4
:1046D0003446F71918E0791B02AA284601F0C7F9F9
:1046E00004006AD002985C2810D022280ED020281E
:1046F0000CDB1299490501D52F2807D012994906DC
:1047000001D57F2802DC2546BC42E4D3B54206D061
:104710000B9BA91B30460C9A984700284DD1AC4200
:1047200006D10B9B012128A00C9A98470DB0F0BD33
:10473000029A02210D2A23D008DC082A1AD0092A5D
:1047400020D00A2A1AD00C2A06D115E0222A0FD02E
:104750002F2A19D05C2A09D001200004824215DAE0
:104760001AA105A8FFF7E4F8062120E019A01FE030
:1047700019A01DE019A01BE019A019E019A017E06D
:1047800019A015E019A013E019A011E0101A0103F7
:104790001B22890DD2028A18029080053721800DD4
:1047A0008902431813A105A8FFF7C2F80C2105A838
:1047B0000B9B0C9A9847002802D00020C043B5E715
:1047C00025462E46A0E70000220000005C7525303B
:1047D000345800005C5C00005C2200005C62000059
:1047E0005C6600005C6E00005C7200005C7400009F
:1047F0005C2F00005C75253034585C7525303458CA
:104800000000000013460A4610B50146184601F0A4
:1048100031F810BD10B5002821D0114B0022001F27
:10482000196803E0814203D80A4649680029F9D192
:1048300052B11368841A9C4204D100681844106075
:10484000104602E0506000E0186039B102680B1AAF
:10485000934203D10B681A4402604968416010BD5D
:104860008800002070B5044688184E4A8018024619
:10487000154646E023785B1965782D02EB18A5787C
:104880002D04EB18E5782D06EE1823799A18637934
:104890001B029A18A3791B049A18E3791B069B182C
:1048A000227A1018627A12021018A27A12041018D2
:1048B000E27A12061518701B1C262A46F241424065
:1048C0001046ED181B1A1A26F2415A401346401999
:1048D000ED1A1826F2416A4015461B18401B102697
:1048E000F2414240EE1810461B1A0D25EA41534092
:1048F0008519F21A18461C26F04150405A190C39F5
:104900000C340C29B6D80B00FFF738F80D4A2724D1
:10491000211E1C191613110E0B082900E17A090635
:104920000818A17A09040818617A09020818217A7E
:104930000818E17909068A18A17909048A186179A9
:1049400009028A1821798A18E17809064D19A17897
:1049500009044D19617809024D1921784D19122366
:104960001146D9415040411A152308464D40D841BF
:10497000281A07240346E3414240D21A1024134662
:10498000E3415140C91A1C240B464840E341C01A78
:1049900042401223D841101A41400822D041081A3F
:1049A00070BD0000EFBEADDE10B5044600F004F8A7
:1049B000606800F03DFC10BD70B505460C3504691B
:1049C00008E06668A068241F00F0B7F9204600F0F0
:1049D0002FFC3446AC42F4D170BDF8B504464068B3
:1049E00000F026FCA1680126491C30468840A160E1
:1049F0000090C00000F024FC6060002803D000207C
:104A000025460C3509E00020C043F8BDC1006268AE
:104A10000B1DD5506268401C5550227A314691409A
:104A20008142F3D822696D602D600DE0171F566832
:104A300038680099FEF79BFA6068C90041183A1D72
:104A4000204600F0D1F83246AA42EFD10020F8BD4E
:104A5000FFB581B01F460E46FFF729FC002813D191
:104A60003468251F2868B84206D1284614300399B7
:104A7000FEF724FB002804D07068A04204D06468CC
:104A8000EFE7284605B0F0BD0020FBE770B504460F
:104A90000D460846FEF70BFB0B490A6801462846FF
:104AA000FFF7E0FE237A01219940491E0140626828
:104AB000C900511803462A462046FFF7C9FF0028BF
:104AC00000D0C06870BD00008400002070B50446AE
:104AD000002020600320A060402000F0B1FB606057
:104AE000002806D020460C30206100210123E06020
:104AF00009E00020C04370BDCA006568161DA851BA
:104B00006568491CA850257A1A46AA408A42F3D8FB
:104B1000002070BD00B501460C3100F003F800BD67
:104B200010307047024648680C32904200D1002095
:104B30007047C0687047806870470000FFB5054641
:104B4000027A012401682046904081B01F468142CC
:104B500004D32846FFF741FF002840D10298FEF712
:104B6000A6FA20490A6801460298FFF77BFE06462E
:104B7000287A33468440641E34406868E100401857
:104B8000009001462846029AFFF762FF040004D015
:104B9000E06800F0D2F8E7601EE00298FEF787FABE
:104BA0001521C8421BD2153000F04AFB040016D074
:104BB000266003982061204614300299FEF78CFA93
:104BC000201DA060E7606060221D2846009900F06B
:104BD0000BF82868401C2860002005B0F0BD0020BC
:104BE000C043FAE78400002070B515460C4606461F
:104BF000FFF75DFB002806D0304629460C3000F058
:104C000047FB656003E02946206800F041FB256012
:104C100070BD70B5182000F013FB04000ED0012009
:104C200020700025E56060600820A060202000F072
:104C300007FB2061002802D02046656170BD204638
:104C400000F0F6FA002070BD70B5104E0D0005D0D2
:104C5000002817D00178012914D101E0304670BD39
:104C6000A8420FD001220446114600F01FF8002888
:104C700008D0E168206989004550E068401CE06088
:104C8000002070BD284600F04CF8E7E7FFFFFFFF6B
:104C9000002805D00278012A02D1C2688A4201D8D0
:104CA000002070470069890040587047F8B50546F4
:104CB000C06817464318AA682869934219D906465E
:104CC00054185000844200D80446A00000F0B8FAFE
:104CD00000280ED0AC602861002F0BD0E9680023BB
:104CE000009132461946FFF7D6FA304600F0A0FA96
:104CF0002869F8BD3046F8BD002802D001780129A6
:104D000001D000207047C068704710B5002807D058
:104D100041684A1C04D0491E416001D100F019F8D5
:104D200010BD10B5002807D041684A1C04D0491EA8
:104D3000416001D100F00DF810BD10B5002807D07A
:104D400041684A1C04D0491E416001D100F001F8BD
:104D500010BD70B500280AD00178002908D00129BB
:104D60000BD002291AD0032915D0042913D070BD05
:104D700004460830FFF718FE0CE00446002504E066
:104D8000A9004058FFF7CDFF6D1CE068A8422069DC
:104D9000F6D805E0204600F04BFA70BD0446806866
:104DA00000F046FAF6E738B51C469B0509D4002802
:104DB00004D00378012B04D0002B02D00020C04384
:104DC00038BD0B46009200222146FFF77BFA38BD22
:104DD0003EB505460C46684600F090FD002801D01F
:104DE00000203EBD23466A4609492846FFF7DBFFFF
:104DF000002801D0002405E0684600F095FD00F091
:104E000027FA0446684600F06DFD20463EBD0000CE
:104E100005480008004870476C000020002804D0B6
:104E200041684A1C01D0491C4160704770B5044676
:104E30000D46102000F004FA002804D00321017070
:104E40000121021D32C270BD002802D00178032961
:104E500002D00020014670478268C1681046704742
:104E6000004870477400002010B5242000F0E8F9D5
:104E7000040004D00E480068002802D004E000209E
:104E800010BD002000F04AF8002020700120606072
:104E900020460830FFF71AFE002803D0204600F015
:104EA000C7F9ECE70020E0612062204610BD000059
:104EB0008400002010B5002904D0002802D0027818
:104EC000002A01D0002010BD0830FFF7DFFD10BD23
:104ED00010B5002802D00178002901D0002010BDB3
:104EE0000830FFF717FE10BD10B5002801D0FFF7FE
:104EF00017FE10BD10B5002808D00278002A05D191
:104F0000002903D00830FFF70DFE10BD002010BDB2
:104F100010B5002801D0FFF70EFE10BD38B5084CC3
:104F2000216800290AD1002807D16846FDF79CFBBB
:104F30000098002801D101200090206038BD0000B9
:104F40008400002070B50E4D140007D0002912D047
:104F5000002810D00278002A0DD101E0284670BD4B
:104F6000A04208D0C269531CC36123460830FFF732
:104F7000E5FD0028F3D02046FFF7D3FEEEE7000062
:104F8000FFFFFFFF002802D00178002901D0002098
:104F90007047806870470FB410B5002103AB084616
:104FA000029A00F045F810BC08BC04B0184770B570
:104FB00004460D46FEF7FAFC002805D12046294696
:104FC000FEF7E9FC002801D0002070BD102000F0A1
:104FD00037F90028F9D0042101700121021D32C2E5
:104FE00070BD002802D00178042902D000200146BB
:104FF00070478268C16810467047002802D0017867
:10500000022901D000207047C0687047002802D0F4
:105010000178022901D0002070478068704710B5E0
:10502000002200F083FC10BD00487047640000209F
:10503000F0B595B01D4614000E46074629D02078DD
:10504000002826D00021384600F0A4F82346324636
:10505000394601A800F0E2FB01A800F057F914A9B5
:1050600001A8149500F0A6F9044600201490002C25
:105070001BD001A800F04AF908A8007A00282046B1
:1050800014D0FFF742FE0AA210A101A800F0DCFB39
:105090000BE00EA1384600F07DF80FA00023591E4A
:1050A00000900A46384600F086F8002015B0F0BDA2
:1050B0004761726261676520616674657220666F20
:1050C000726D617420737472696E67003C666F72F2
:1050D0006D61743E000000004E554C4C206F7220F4
:1050E000656D70747920666F726D6174207374726F
:1050F000696E6700FEB5074608980C46002800D187
:10510000112001930092034620A23846FEF7FCFBD3
:105110000026F643002811DB0546A0420ED22E21C0
:105120003846FDF7BAFF002812D165213846FDF751
:10513000B4FF00280CD1E81CA04201D33046FEBDCC
:105140002E20785530217819417000218170AD1CD6
:1051500065213846FDF7A1FF002814D0461C841CA9
:1051600040782D2802D1761C00E0641C207830287D
:10517000FBD0B44207D0E01B2A1A21463046FDF787
:105180005AFFA01B2D1A2846FEBD0000252E2A67B7
:105190000000000010B500280AD000225C231A5439
:1051A000531E036043608260002902D000F00CF8B7
:1051B00010BD027310BD1CB505AC0194049C009495
:1051C00000F020F81CBD000070B504000D4616D09C
:1051D000002D14D00846FDF76AFF22460C325028F5
:1051E00002D22946104608E006464C3E04A110466D
:1051F000FDF772FF2046A9190F30FDF76DFF70BD56
:105200002E2E2E0070B50400059D04980FD05C264C
:10521000365D002E0BD10EC4024620462B46A0213F
:1052200050300C3CFEF798FB0020E034E07670BD77
:10523000002802D001494968084770477C000020D7
:10524000002802D001490968084770477C00002007
:1052500010B50446FDF72BFF0146204600F006F886
:1052600010BD10B5012200F061FB10BD70B50646FF
:105270000C46481CFFF7E4FF050007D022463146E4
:10528000FDF7D9FE00202855284670BD002070BDCE
:10529000486002680A60026851600160704700005F
:1052A000F0B50B30154D20F007010024144A0FE033
:1052B00003688B420BD38B4205D95E1A43184768AB
:1052C000C3E9006700E04368136002C004E0021D08
:1052D00010680028ECD12046002802D1286808B1C7
:1052E0000020F0BD064A07481060074A121A22F053
:1052F0000702C0E9002401202860D7E78C000020C5
:10530000880000208C05002088070020014610B589
:1053100018311EC908301EC001691838002907D08D
:1053200002462C321CCA18301EC00021016010BD7C
:10533000426C4168521C4264826C521C012382649C
:1053400008E00A2A1DD0426C521C4264826C521C36
:10535000491C82640A78202AF3D0092AF1D00A2A4B
:10536000EFD02C2AEDD03A2AEBD0D3B2242213541A
:10537000026C8261426CC261826C491C02624160B3
:1053800010BD026C4364521C0264DFE710B549682B
:105390004068FDF793FE10BD00680968884202D29C
:1053A0000020C0437047884201D001207047002090
:1053B000704700000EB52422135C692B42D00CDC30
:1053C0005B2B1BD004DC492B42D04F2B0DD155E079
:1053D000622B2BD0662B08D145E06E2B23D06F2B90
:1053E00053D0732B0DD07B2B05D02AA232A100F015
:1053F0002BFA00200EBD00F0C1F80EBD00F066F8DB
:105400000EBD02AA009201AB2EA200F059F90028AD
:10541000F6D002990029019902D0FFF722FF0EBDB4
:10542000FFF7FDFD0EBDFFF71BFD0EBD0868021D59
:105430000A600068002802D0FFF7F6FD0EBDFFF7F6
:10544000E9FC0EBD0868021D0A600068C11707E08C
:105450000868C01DC208D20010460830086003CAA0
:10546000FFF7E4FC0EBD0868C01DC208D20010465C
:105470000830086003CAFFF79AFD0EBD0868021DD8
:105480000A600068FFF7CAFC0EBD0868021D0A60CA
:1054900000680EBD556E657870656374656420663E
:1054A0006F726D61742063686172616374657220EC
:1054B00027256327000000003C666F726D61743E13
:1054C00000000000737472696E670000F8B50F4643
:1054D0000546FFF79EFB06462846FFF717FF2C46BA
:1054E00020341CE0002814D039462846FFF762FF1C
:1054F000010009D03046FFF7A7FB00280CD00AA214
:1055000010A1284600F0A0F93046FFF7FEFB00206E
:10551000F8BD0FA216A1F4E72846FFF7F7FE2079A1
:105520005D28DFD13046F8BD556E61626C65207430
:105530006F20617070656E6420746F20617272619B
:10554000790000003C696E7465726E616C3E00000B
:10555000556E657870656374656420656E64206F50
:105560006620666F726D617420737472696E670075
:105570003C666F726D61743E00000000F0B585B04E
:105580000E460546FFF770FC01902846FFF7BEFE69
:105590002C46203446E0002B04D0732B08D024A2E4
:1055A0002BA127E02DA22AA1284600F04DF92BE0DF
:1055B00002A8009004AB31A23146284600F080F8E2
:1055C000070021D02846FFF7A1FE31462846FFF705
:1055D000F1FE020012D039460198FFF7B3FC002813
:1055E000029817D0002802D03846FFF721FE3B462C
:1055F00025A22BA1284600F027F905E002980028F3
:1056000002D03846FFF714FE0198FFF77EFB00201A
:1056100005B0F0BD002802D03846FFF709FE284645
:10562000FFF774FE23797D2BB5D10198F0E70000D8
:10563000457870656374656420666F726D6174206F
:105640002773272C20676F7420272563270000000D
:105650003C666F726D61743E00000000556E6578A7
:1056600070656374656420656E64206F6620666F84
:10567000726D617420737472696E67006F626A651F
:105680006374206B65790000556E61626C652074EF
:105690006F20616464206B657920222573220000ED
:1056A0003C696E7465726E616C3E0000014610B517
:1056B00018311EC928301EC030381EC81EC010BD8B
:1056C000FFB583B01F460C460398FFF71FFE039DEE
:1056D000039820352E79FFF7E9FF232E27D0252EBA
:1056E00025D02B2E23D02068011D21600468002CBA
:1056F00010D02046FDF7DBFC05460146204600F0B1
:1057000097F900280CD03D600C98002101602046DC
:1057100007B0F0BD2DA233A1039800F095F853E037
:1057200032A230A1059B039800F08EF84CE0684649
:1057300000F0E4F82068011D21600668002E2CD0DE
:105740000398FFF7E3FD2879232829D0252827D0BF
:105750000398FFF7ABFF3046FDF7A9FC0246314640
:10576000684600F087F8401C1FD00398FFF7CEFD75
:1057700028792B28DED00398FFF798FF019900982D
:1057800000F056F9002816D0019838600C980121D5
:105790000160684600F0C3F8BAE70CA211A106E068
:1057A0002068011D21600268D9E715A218A103989D
:1057B00000F04AF805E00DA20AA1059B039800F04D
:1057C00043F8684600F08EF80020A1E74E554C4C97
:1057D00020737472696E6720617267756D656E748F
:1057E000000000003C617267733E0000496E766104
:1057F0006C6964205554462D382025730000000044
:105800004F7574206F66206D656D6F7279000000B2
:105810003C696E7465726E616C3E000003604360AB
:10582000C263816300218160C16001614161816166
:10583000C161016241628162C1620163416301220F
:1058400041640264816470470FB47CB5044609A8C2
:1058500001900D4608980090214618310EC9A06BA2
:10586000FFF7D0FC2946A06BFFF7AEFC7CBC08BC60
:1058700004B01847F7B504468168406816460A1A0E
:10588000B2421BD8164A914227D8B21C25D85242A0
:10589000904222D84D00711C4018854200D8054620
:1058A0002846FFF7CDFC070017D006CC083CFDF7D3
:1058B000C2FB2068FFF7BCFC2760A56003CC324622
:1058C0004018083C0199FDF7B6FB606880196060DC
:1058D0002268002111540846FEBD0020C043FEBDD1
:1058E000FFFFFF7F10B504460068002801D0FFF7D6
:1058F0009FFC0020A0606060206010BD70B5044671
:10590000002510206560A060FFF79AFC2060002849
:1059100002D00570002070BD0020C04370BD002281
:1059200001680260084670470068704770B5154608
:105930000E46002811D0002D01D0044603E0FFF7E9
:1059400095FC040009D01020FFF77AFC002805D050
:10595000022101700121021D52C270BD002D02D131
:105960002046FFF765FC002070BD802801D2012091
:105970007047014680393F2913D9C02811D0C1286A
:105980000FD042391D2901D8022070470146E03965
:105990000F2901D803207047F038042801D80420CB
:1059A000704700207047000070B50378022904D0CA
:1059B000032905D0042906D02EE0DB06DB0E04E027
:1059C0001B071B0F01E05B075B0F0124055D2E46E3
:1059D000803E402E20D2AD069B01AD0E5B19641CAB
:1059E0008C42F3D31048834216DC1B20C0020F4CBC
:1059F000181AA04210D9022904D0032905D004297D
:105A000006D00BE0802B07DB08E00120C00201E09C
:105A100001200004834201DA002070BD002A00D07A
:105A20001360012070BD0000FFFF1000FF070000A1
:105A3000F0B50E460746002415E0385DFFF795FFE8
:105A4000050004D0012D0DD9301BA84201D2002041
:105A5000F0BD381900222946FFF7A6FF0028F7D02D
:105A60006419641E641CB442E7D30120F0BD78B50C
:105A700016460A00054617D02878FFF776FF04007F
:105A800013D0012C09D094420FD801466A4628460B
:105A9000FFF78AFF002808D001E028780090002E48
:105AA00001D000983060281978BD002078BD000032
:105AB000A3CE1338885A863948EF163ADC245C3A6C
:105AC00001486E3AD37A3F3A40E7C639A21B3138D3
:105AD00076C388B8B5D54039EAE83F3A8926AE3A68
